:020000040800F2
:1000000000000520FD260008012600080326000840
:100010000526000807260008092600080000000041
:10002000000000000000000000000000E1EB0008FC
:100030000B2600080000000081EC0008E5EC000839
:100040004D2700084D2700084D2700084D270008C0
:100050004D2700084D2700084D2700084D270008B0
:100060004D2700084D2700084D2700084D270008A0
:100070004D2700084D2700084D2700084D27000890
:100080004D2700084D2700084D2700084D27000880
:100090004D2700084D2700084D2700084D27000870
:1000A0004D2700084D2700084D2700080D260008A1
:1000B0004D2700084D2700084D2700084D27000850
:1000C0004D2700084D2700084D2700084D27000840
:1000D0004D2700084D2700084D2700084D27000830
:1000E0004D2700084D2700084D2700081926000855
:1000F0004D2700084D2700084D2700084D27000810
:100100004D2700084D2700084D2700084D270008FF
:100110004D2700084D270008252600084D27000818
:100120004D2700084D2700084D2700084D270008DF
:100130004D2700084D2700084D2700084D270008CF
:100140004D2700084D2700084D2700084D270008BF
:100150004D2700084D2700084D2700084D270008AF
:100160004D2700084D2700084D2700084D2700089F
:100170004D2700084D2700084D270008000000000B
:100180004D2700084D2700084D2700084D2700087F
:100190004D2700084D2700084D2700084D2700086F
:1001A000312600084D2700083D2600084D2700088D
:1001B0004D2700084D2700084D2700084D2700084F
:0801C0004D2700084D2700083F
:1001D00010B5054C237833B9044B13B10448AFF381
:1001E00000800123237010BD0006002000000000E5
:1001F0000CBA030808B5034B1BB103490348AFF31E
:10020000008008BD00000000040600200CBA0308AE
:1002100001F0FF01102A2BDB10F0070F08D010F8B7
:10022000013B013A8B422DD010F0070F42B3F6D1BB
:10023000F0B441EA012141EA014122F007047FF0D4
:1002400000070023F0E80256083C85EA010586EA2B
:10025000010685FA47F5A3FA87F586FA47F6A5FA67
:1002600087F68EB9EED1F0BC01F0FF0102F0070273
:1002700032B110F8013B013A83EA010313B1F8D11E
:100280000020704701387047002D06BF35460338FF
:10029000073815F0010F07D1013015F4807F02BF38
:1002A000013015F4C03F0130F0BC0138704700BF89
:1002B000034613F8012B002AFBD1181A01387047A6
:1002C00081F0004102E000BF83F0004330B54FEA07
:1002D00041044FEA430594EA050F08BF90EA020F74
:1002E0001FBF54EA000C55EA020C7FEA645C7FEA07
:1002F000655C00F0E2804FEA5454D4EB5555B8BF2A
:100300006D420CDD2C4480EA020281EA030382EA9A
:10031000000083EA010180EA020281EA0303362D2C
:1003200088BF30BD11F0004F4FEA01314FF4801CFF
:100330004CEA113102D0404261EB410113F0004F11
:100340004FEA03334CEA133302D0524263EB4303C8
:1003500094EA050F00F0A780A4F10104D5F1200E66
:100360000DDB02FA0EFC22FA05F2801841F10001C1
:1003700003FA0EF2801843FA05F359410EE0A5F195
:1003800020050EF1200E012A03FA0EFC28BF4CF0C6
:10039000020C43FA05F3C01851EBE37101F000457C
:1003A00007D54FF0000EDCF1000C7EEB00006EEB89
:1003B0000101B1F5801F1BD3B1F5001F0CD3490813
:1003C0005FEA30004FEA3C0C04F101044FEA44526A
:1003D00012F5800F80F09A80BCF1004F08BF5FEAF1
:1003E000500C50F1000041EB045141EA050130BDD1
:1003F0005FEA4C0C404141EB0101013C28BFB1F5E3
:10040000801FE9D291F0000F04BF01460020B1FA2D
:1004100081F308BF2033A3F10B03B3F120020CDA00
:100420000C3208DD02F1140CC2F10C0201FA0CF0DE
:1004300021FA02F10CE002F11402D8BFC2F1200C43
:1004400001FA02F120FA0CFCDCBF41EA0C019040F9
:10045000E41AA2BF01EB0451294330BD6FEA040442
:100460001F3C1CDA0C340EDC04F11404C4F120022D
:1004700020FA04F001FA02F340EA030021FA04F33F
:1004800045EA030130BDC4F10C04C4F1200220FA96
:1004900002F001FA04F340EA0300294630BD21FAD4
:1004A00004F0294630BD94F0000F83F4801306BF9A
:1004B00081F480110134013D4EE77FEA645C18BF8E
:1004C0007FEA655C29D094EA050F08BF90EA020F25
:1004D00005D054EA000C04BF1946104630BD91EA1D
:1004E000030F1EBF0021002030BD5FEA545C05D120
:1004F0004000494128BF41F0004130BD14F580045F
:100500003CBF01F5801130BD01F0004545F0FE41D2
:1005100041F470014FF0000030BD7FEA645C1ABF07
:10052000194610467FEA655C1CBF0B46024650EA3E
:10053000013406BF52EA033591EA030F41F400216A
:1005400030BD00BF90F0000F04BF0021704730B5F0
:100550004FF4806404F132044FF000054FF00001C5
:1005600050E700BF90F0000F04BF0021704730B586
:100570004FF4806404F1320410F0004548BF40425B
:100580004FF000013EE700BF42004FEAE2014FEAB0
:1005900031014FEA02701FBF12F07F4393F07F4F8B
:1005A00081F06051704732F07F4208BF704793F08E
:1005B0007F4F04BF41F40021704730B54FF46074A1
:1005C00001F0004521F000411CE700BF50EA0102A4
:1005D00008BF704730B54FF000050AE050EA01024D
:1005E00008BF704730B511F0004502D5404261EBBD
:1005F00041014FF4806404F132045FEA915C3FF4FE
:10060000D8AE4FF003025FEADC0C18BF03325FEA9A
:10061000DC0C18BF033202EBDC02C2F1200300FA4B
:1006200003FC20FA02F001FA03FE40EA0E0021FA70
:1006300002F11444BDE600BF70B54FF0FF0C4CF45E
:10064000E06C1CEA11541DBF1CEA135594EA0C0F10
:1006500095EA0C0F00F0DEF82C4481EA030621EA4B
:100660004C5123EA4C5350EA013518BF52EA033586
:1006700041F4801143F4801338D0A0FB02CE4FF038
:100680000005E1FB02E506F00042E0FB03E54FF068
:100690000006E1FB03569CF0000F18BF4EF0010E60
:1006A000A4F1FF04B6F5007F64F5407404D25FEA5C
:1006B0004E0E6D4146EB060642EAC62141EA55510F
:1006C0004FEAC52040EA5E504FEACE2EB4F1FD0C51
:1006D00088BFBCF5E06F1ED8BEF1004F08BF5FEACF
:1006E000500E50F1000041EB045170BD06F0004681
:1006F00046EA010140EA020081EA0301B4EB5C042E
:10070000C2BFD4EB0C0541EA045170BD41F4801125
:100710004FF0000E013C00F3AB8014F1360FDEBF4A
:10072000002001F0004170BDC4F10004203C35DA26
:100730000C341BDC04F11404C4F1200500FA05F3A9
:1007400020FA04F001FA05F240EA020001F000424A
:1007500021F0004110EBD37021FA04F642EB0601C0
:100760005EEA430E08BF20EAD37070BDC4F10C04EA
:10077000C4F1200500FA04F320FA05F001FA04F2AE
:1007800040EA020001F0004110EBD37041F100019A
:100790005EEA430E08BF20EAD37070BDC4F12005A5
:1007A00000FA05F24EEA020E20FA04F301FA05F20D
:1007B00043EA020321FA04F001F0004121FA04F2B5
:1007C00020EA020000EBD3705EEA430E08BF20EA85
:1007D000D37070BD94F0000F0FD101F000464000BF
:1007E00041EB010111F4801F08BF013CF7D041EA41
:1007F000060195F0000F18BF704703F00046520045
:1008000043EB030313F4801F08BF013DF7D043EA15
:100810000603704794EA0C0F0CEA135518BF95EACB
:100820000C0F0CD050EA410618BF52EA4306D1D152
:1008300081EA030101F000414FF0000070BD50EA71
:10084000410606BF1046194652EA430619D094EAFB
:100850000C0F02D150EA013613D195EA0C0F05D1E5
:1008600052EA03361CBF104619460AD181EA030139
:1008700001F0004141F0FE4141F470014FF00000F1
:1008800070BD41F0FE4141F4780170BD70B54FF08C
:10089000FF0C4CF4E06C1CEA11541DBF1CEA13550C
:1008A00094EA0C0F95EA0C0F00F0A7F8A4EB0504EE
:1008B00081EA030E52EA03354FEA013100F08880E5
:1008C0004FEA03334FF0805545EA131343EA1263AE
:1008D0004FEA022245EA111545EA10654FEA002663
:1008E0000EF000419D4208BF964244F1FD0404F51C
:1008F000407402D25B084FEA3202B61A65EB030578
:100900005B084FEA32024FF480104FF4002CB6EB34
:10091000020E75EB030E22BFB61A754640EA0C00B4
:100920005B084FEA3202B6EB020E75EB030E22BFF4
:10093000B61A754640EA5C005B084FEA3202B6EB35
:10094000020E75EB030E22BFB61A754640EA9C00F4
:100950005B084FEA3202B6EB020E75EB030E22BFC4
:10096000B61A754640EADC0055EA060E18D04FEA82
:10097000051545EA16754FEA06164FEAC30343EA22
:1009800052734FEAC2025FEA1C1CC0D111F4801FEF
:100990000BD141EA00014FF000004FF0004CB6E7E8
:1009A00011F4801F04BF01430020B4F1FD0C88BF87
:1009B000BCF5E06F3FF6AFAEB5EB030C04BFB6EB92
:1009C000020C5FEA500C50F1000041EB045170BD85
:1009D0000EF0004E4EEA113114EB5C04C2BFD4EBB2
:1009E0000C0541EA045170BD41F480114FF0000E36
:1009F000013C90E645EA060E8DE60CEA135594EAB2
:100A00000C0F08BF95EA0C0F3FF43BAF94EA0C0FB4
:100A10000AD150EA01347FF434AF95EA0C0F7FF429
:100A200025AF104619462CE795EA0C0F06D152EA7D
:100A300003353FF4FDAE1046194622E750EA410661
:100A400018BF52EA43067FF4C5AE50EA41047FF472
:100A50000DAF52EA43057FF4EBAE12E74FF0FF3CD7
:100A600006E000BF4FF0010C02E000BF4FF0010CA8
:100A70004DF804CD4FEA410C7FEA6C5C4FEA430C21
:100A800018BF7FEA6C5C1BD001B050EA410C0CBF70
:100A900052EA430C91EA030F02BF90EA020F0020D2
:100AA000704710F1000F91EA030F58BF994208BF39
:100AB00090422CBFD8176FEAE37040F001007047F6
:100AC0004FEA410C7FEA6C5C02D150EA013C07D14D
:100AD0004FEA430C7FEA6C5CD6D152EA033CD3D098
:100AE0005DF8040B704700BF8446104662468C4692
:100AF0001946634600E000BF01B5FFF7B7FF0028C5
:100B000048BF10F1000F01BD4DF808EDFFF7F4FFED
:100B10000CBF012000205DF808FB00BF4DF808ED78
:100B2000FFF7EAFF34BF012000205DF808FB00BF9B
:100B30004DF808EDFFF7E0FF94BF012000205DF8BD
:100B400008FB00BF4DF808EDFFF7CEFF94BF012072
:100B500000205DF808FB00BF4DF808EDFFF7C4FF6B
:100B600034BF012000205DF808FB00BF4FEA410CB4
:100B70007FEA6C5C02D150EA013C0AD14FEA430C97
:100B80007FEA6C5C02D152EA033C02D14FF00000D4
:100B900070474FF0010070474FEA410212F5001212
:100BA00015D211D56FF47873B3EB625212D94FEAB4
:100BB000C12343F0004343EA505311F0004F23FA9E
:100BC00002F018BF404270474FF00000704750EAF3
:100BD000013005D111F0004008BF6FF000407047B0
:100BE0004FF00000704700BF4A0011D212F500120A
:100BF00011D20DD56FF47873B3EB62520ED44FEA75
:100C0000C12343F0004343EA505323FA02F07047F4
:100C10004FF00000704750EA013002D14FF0FF3032
:100C200070474FF0000070474FEA4102B2F1E043D5
:100C300024BFB3F5001CDCF1FE5C0DD901F0004CC3
:100C40004FEAC0024CEA5070B2F1004F40EB830013
:100C500008BF20F00100704711F0804F21D113F13F
:100C60003872BCBF01F00040704741F480114FEA78
:100C70005252C2F11802C2F1200C10FA0CF320FA01
:100C800002F018BF40F001004FEAC1234FEAD3231E
:100C900003FA0CFC40EA0C0023FA02F34FEA430388
:100CA000CCE77FEA625307D150EA01331EBF4FF011
:100CB000FE4040F44000704701F0004040F0FE402C
:100CC00040F40000704700BF7BB972B90029BEBF75
:100CD00000204FF0004106E008BF00281CBF6FF065
:100CE00000414FF0FF3000F0D3B9ADF1080C6DE9D1
:100CF00004CE002909DB002B1ADB00F04DF8DDF8EB
:100D000004E0DDE9022304B07047404261EB410199
:100D1000002B1BDB00F040F8DDF804E0DDE90223E6
:100D200004B0404261EB4101524263EB4303704720
:100D3000524263EB430300F02FF8DDF804E0DDE9F5
:100D4000022304B0404261EB41017047524263EB21
:100D5000430300F021F8DDF804E0DDE9022304B0EC
:100D6000524263EB4303704753B94AB9002908BFA5
:100D700000281CBF4FF0FF314FF0FF3000F088B962
:100D8000ADF1080C6DE904CE00F006F8DDF804E0E2
:100D9000DDE9022304B070472DE9F047089D8E4637
:100DA00004468846002B4AD18A42174662D9B2FAD5
:100DB00082F64EB1C6F1200301FA06F820FA03F3D9
:100DC000B74043EA0808B4404FEA174E1FFA87FCC1
:100DD000B8FBFEF1230C0EFB118843EA084301FB2C
:100DE0000CF29A4209D9FB1801F1FF3080F0EA8039
:100DF0009A4240F2E78002393B449A1AA3B2B2FB0E
:100E0000FEF00EFB102243EA024300FB0CFC9C4563
:100E100009D9FB1800F1FF3280F0D6809C4540F2E2
:100E2000D3803B44023840EA0140A3EB0C0300218D
:100E30001DB1F3400022C5E90032BDE8F0878B42C6
:100E400005D90DB1C5E9000100210846F5E7B3FA5F
:100E500083F1002946D1734502D3824200F2058115
:100E6000841A6EEB030201209046002DE5D0C5E9FF
:100E70000048E2E7002A00F09080B2FA82F6002EE5
:100E800040F0A4808A1A030C4FEA174E80B2BCB21D
:100E90000121B2FBFEFC0EFB1C2243EA024304FBD1
:100EA0000CF29A4207D9FB180CF1FF3802D29A4291
:100EB00000F2E080C4469B1AB3FBFEF20EFB123335
:100EC00040EA034302FB04F49C4207D9FB1802F1F9
:100ED000FF3002D29C4200F2CA8002461B1B42EA4B
:100EE0000C40A5E7C1F120068B4022FA06F71F430C
:100EF0000EFA01F420FA06F32EFA06FE4FEA17491D
:100F0000234300FA01F81FFA87FCBEFBF9F01C0C22
:100F100009FB10EE44EA0E4400FB0CFEA64502FA63
:100F200001F209D93C1900F1FF3A80F09C80A645F6
:100F300040F2998002383C44A4EB0E041FFA83FE71
:100F4000B4FBF9F309FB13444EEA044403FB0CFC25
:100F5000A44508D93C1903F1FF3E80F08280A445E6
:100F60007FD9023B3C4443EA0040A4EB0C04A0FBC5
:100F700002EC64457346E14662D35FD05DB1B8EBE5
:100F8000030264EB090404FA06F622FA01F31E4395
:100F9000CC40C5E9006400214FE7B1FBF2FC010C35
:100FA00041EA0E4180B240EA01423B4638463C46A7
:100FB000B846BE462026B1FBF7F1A2EB080241EA93
:100FC0000C4166E7014618E710462CE7C6F12002FF
:100FD0002EFA02F3B740B14020FA02F24FEA174E60
:100FE0000A43B3FBFEF8BCB20EFB1833110C41EA06
:100FF000034108FB04F9B04089454FEA104380B231
:101000003ED9791808F1FF3C01D289451FD8A1EBE0
:101010000901B1FBFEF909FB04F80EFB191192B2AC
:1010200042EA0142424529D2BA1809F1FF31C4D23D
:101030004245C2D2A9F102013A44BEE7F0459DD231
:10104000BEEB02036CEB070C0138E14696E7A7EB19
:1010500009094944A8F1020CB1FBFEF909FB04F8A7
:10106000DBE773467FE7504666E70846FDE63B440C
:10107000023A33E7ACF1020C3B441CE749469CE7DB
:10108000A1EB0901C446B1FBFEF909FB04F8C4E772
:10109000704700BF104A08B513680BB9002008BD9F
:1010A000013B1360002BF9D10C4A4FF480710C48BE
:1010B000136C23F4001313640AF060F908484FF42A
:1010C00000710AF05BF907480AF08EFB0028E5D0B2
:1010D0006FF00700E3E700BF1C0600200038024065
:1010E00000040240200600201FB54FF480540092F7
:1010F0000A4601460848CDE9013401230AF08EFB77
:1011000040B105480AF045FD042814BF6FF0030004
:101110006FF0650004B010BD200600201FB54FF42D
:10112000805400920A4601460848CDE90134012363
:101130000AF04EFC40B105480AF02BFD042814BF0C
:101140006FF003006FF0650004B010BD20060020B2
:1011500009F0CEBD114A124B70B500260446C0E915
:10116000002301230662C0E90263C0E90466C0E906
:1011700006660AF0E4FA0546314620460AF00BFD01
:10118000054331462046EDB2AD1B18BF01250AF0DC
:1011900028FDB0420CBF2846012070BD005400401D
:1011A0000D0300602DE9F0432C4BA9B02C4A2D4EC5
:1011B00033601368591C11601BB1002029B0BDE8D1
:1011C000F08330460AF0E2FC05460028F5D1802283
:1011D000014608A8244C38F001FC4FF4804307A8CE
:1011E0004FF0120907930BF00BFC236B4FF0030831
:1011F000042702A943F002031C482363236B0495D0
:1012000003F002030093009B4FF48073CDE9058740
:10121000CDE9023909F0CEFF4FF4007302A913485B
:101220000697CDE90239CDE9045809F0C3FF236CD4
:10123000304643F400132364236C03F4001301933A
:10124000019BFFF787FF014610B16FF00700B5E77C
:1012500030460AF0A0FC0028AFD0F6E7005400406A
:101260001C06002020060020003802400004024036
:10127000014900200EF0C2BE792B00080D4D0E4C26
:1012800008B5082128460AF013F9012802460BD1B7
:10129000204608210AF012F942F2107009F02EFDE2
:1012A00064200DF0AFF8ECE70022082120460AF098
:1012B00005F9F5E7002002400028024007B54FF08D
:1012C000FF330190012201A903480CF072FE01983E
:1012D00003B05DF804FB00BFEC06002013B500234B
:1012E0000C4C08220DF107018DF8073020462368C9
:1012F0001A624FF0FF3301220CF0ACFE4FF0FF33C7
:1013000001220DF1070120460CF053FE9DF8070065
:1013100002B010BDEC06002010B594B010220021E0
:1013200002240AA838F05AFB1422002103A838F03E
:1013300055FB1D4B192108A81A6C42F080521A6403
:101340001B6C03F080530193019B184B1A6842F405
:1013500040421A6001221B6803F440430293029B3F
:101360004FF48033CDE908234FF48003CDE90E43D9
:101370004FF4D873CDE91244CDE910130BF07CF88B
:101380000AF0E6FD0F2300200721CDE903344FF4D6
:10139000A053CDE905034FF4805303A807930BF046
:1013A00053FA14B010BD00BF003802400070004076
:1013B00030B54FF480738FB04FF080720E4D0693AE
:1013C0009F23099201220093002304466946284680
:1013D0000593CDE90A2341F28832CDE90733CDE9FF
:1013E0000C330AF01BFF41F28832214628460AF0EE
:1013F000DFFF0FB030BD00BFF008002000B54FF494
:10140000807391B04FF04072EF2808934FF0EB03D8
:1014100002A90D4802934FF4406309934FF400531F
:1014200005934FF00003CDE90A3214BF0A220622C9
:101430000F9307926A46CDE90D33CDE900330AF0E8
:1014400031FF11B05DF804FBF00800202DE9804861
:10145000A5B000211022012517A8002438F0BEFAFB
:1014600009F0C2FC4FF01042C64B17A8ADF85C5013
:101470001A94CDE9182309F0D5FC172317A88DF885
:101480005D508DF864308DF86A5009F0CBFC042073
:1014900009F0B8FCBFF34F8FBFF36F8FBA4AC2F8A1
:1014A0005042BFF34F8FBFF36F8F536943F4003344
:1014B0005361BFF34F8FBFF36F8FC2F88440BFF308
:1014C0004F8FD2F8803043F6E074C3F3C900C3F302
:1014D0004E335B0103EA0406014646EA8175013991
:1014E000C2F86052F9D2203B13F1200FF2D1BFF3C2
:1014F0004F8F536943F480335361BFF34F8FBFF372
:101500006F8F09F0D7FB0024FFF706FF142200219C
:1015100017A838F063FA9D4B04219D481A6B4FF0D1
:10152000080B01254FF0400A42F01002994E9A4FE5
:101530004FF010081A634FF004091A6B02F0100202
:101540000292029A1A6B42F002021A631A6B02F0BC
:1015500002020392039A1A6B42F001021A631A6B99
:1015600002F001020492049A1A6B42F040021A63DC
:101570001A6B02F040020592059A1A6B42F400724F
:101580001A631A6B02F400720692069A1A6B42F002
:1015900008021A631A6B02F008020792079A1A6B84
:1015A00042F480621A631A6B02F480620892089A0D
:1015B0001A6B42F480721A631A6B02F480720992F9
:1015C000099A1A6B42F020021A631A6B02F0200289
:1015D0000A920A9A1A6B42F080021A631A6B02F09E
:1015E00080020B920B9A1A6B42F004021A630022DB
:1015F0001B6B03F004030C930C9B09F05FFF0122AB
:101600000821664809F05AFF01224FF480516048D2
:1016100009F054FF0022C021614809F04FFF002269
:101620004021604809F04AFF17A959481994CDE9AB
:1016300017B409F0BFFD41F2040317A95448CDE9DE
:101640001735CDE9194409F0B5FD17A95348CDE97F
:1016500017B5CDE9194409F0ADFDC02317A95048CD
:101660001994CDE9173503231A9309F0A3FD17A99F
:101670004C48CDE917A5CDE9194409F09BFD17A900
:1016800049481994CDE917A409F094FD4748484A00
:10169000848002600562C0E9054409F0EFFB454A19
:1016A0003046C6E90024C6E90244C6E90A44C6E950
:1016B0000C4409F082FC294630463F4E09F034FDC7
:1016C0003E4A4FF40063C7F814A04FF0020A17A96E
:1016D0003846BC60BC62CDF874A0C7E900244FF462
:1016E000C072C7E906244FF48052C7E908320323C9
:1016F0000722CDE91B3AC7E90398CDE917A2CDE946
:1017000019920BF007FC31464FF6FF7238460194F0
:10171000C6E90058C6E902540BF01CFC284609F043
:10172000EDFA31464FF6FF723846C6E900A8C6E921
:1017300002540BF00FFC032331464FF6FF7238467C
:10174000C6E90038C6E902B40BF004FC4FF40C7390
:101750004FF6FF72314601933846019B4FF0600B04
:10176000B560F360C6E900980BF0F4FB40F22B7112
:101770003846134E0BF00DFC4FF0204343F2D202DB
:1017800064201FE01B00000300ED00E00038024071
:1017900000200240380A0020B8060020002802403D
:1017A0000008024000180240001C0240780A002095
:1017B0000030024000B002409C060020400100A022
:1017C000E409002040F215271A6009F097FAD34B7C
:1017D000D34A30463462C6E90023C6E90245C6E969
:1017E0000444C6E9064409F0AAFF214630460AF03F
:1017F000D2F921463046CB4E0AF0F3F93422214685
:1018000017A838F0EBF8C84B2821352040F2352CCA
:101810003461B48686F83640C6E900340923C6E947
:1018200005130B23C6E9070340F21B133046C6E934
:10183000097340F21D13BD4FC6E90BC3C6E902444C
:101840000AF072FAFF234FF4F0714FF488724FF0F0
:1018500040404FF4806E22921794ADF88C408DF882
:101860008E40CDE91C340523CDE91A2ACDE92001AB
:10187000224630464FF0180AAD4ECDE9181417A98C
:10188000CDE91EE30AF01BFBAA48AB4A0462C0E99B
:1018900000254FF4A062C0E90298C0E904A2C0E9A3
:1018A00006440AF069FC17A8FFF782FD9DF85C006A
:1018B000FFF7A4FD5C2009F085FA4FF0530A00F011
:1018C0001BFF21461C2217A81294CDE9104438F0C2
:1018D00085F89A4A3046B460B461C6E9002A40F2FD
:1018E000E732C6E903240BF0C5FD10A93046109479
:1018F00012940CF00BF9FA2217A9304619941B9494
:10190000CDE917B20C220BF047FE304600F0FCFC8C
:101910008B4B8C484FF4E1328B4E04614462C0E93A
:1019200000320C22C0E90244C0E90524C0E90744A2
:101930000CF02AFC21461C2217A81294CDE9104471
:1019400038F04CF8814A3046B460B461C6E90024EE
:101950004FF6FF72C6E903240BF08CFD10A9304648
:10196000109412940CF0D2F8224617A9304619941C
:101970001B94CDE917B40BF00FFE304600F0C4FC09
:101980001C22214610A8724E0F94CDE90D4438F068
:1019900025F821462C2217A838F020F844F61F63BA
:1019A0006C4A3046B460C6E90334C6E9002AC6E989
:1019B00005440BF05FFD0DA930460F94CDE90D44B1
:1019C0000CF0A4F8224610A930461694CDE910B4C4
:1019D000CDE91244CDE914440BF0DEFD4FF4005282
:1019E00017A930461B941E942194CDE91C244FF076
:1019F0000072CDE91744CDE91F24CDE919440CF05C
:101A0000CFF8304600F080FC21461C2217A8129423
:101A1000CDE9104437F0E2FF44F61F634FF08042F7
:101A20003846BC60BC61C7E90334C7E9002A0BF043
:101A300021FD10A93846109412940CF067F840F27A
:101A4000DC5217A93846CDF85CB01B94CDE91824B8
:101A500022460BF0A1FD384600F056FC42462146D6
:101A600017A837F0BBFFDFF814813B4A4046C8F89F
:101A70000840C8F81840C8E9002A4FF6FE72C8E9C5
:101A800003240BF027FD4A4617A94046CDE9174528
:101A9000CDE919440BF034FE00F05AFE00F057FE79
:101AA000214630460BF046FF214638460BF042FFF8
:101AB000494640460BF08EFF284837F08DFE052141
:101AC000204608F04FFC10B1254837F085FE022172
:101AD000012008F00DFE10B1224837F07DFE0222F1
:101AE0000120114608F0D4FF9FED1F0A02210120BA
:101AF00008F0A6FF1D4A0121002008F0CFFD1C4A76
:101B00000421002008F0CAFD1A4A0221012008F031
:101B10006DFF0CF0EDFB184A002131E068474020D2
:101B2000005C00403C09002000680140580800208B
:101B3000C0070020F0080020001000A0000C0040AA
:101B400000100140EC0600200C08002000040040BA
:101B5000A4080020000001400018004068BA0308F3
:101B600073BA03089DBA0308000048439806002092
:101B7000940600207406002010EF0308740700206C
:101B80000A480CF0EFFB0A4B0A4A002118600A4889
:101B90000CF0E8FB094B0A4A0021186009480CF0D8
:101BA000E1FB094B18600CF0BDFBFEE77D1200085D
:101BB000B4060020ECEE03085F270008B006002002
:101BC000C8EE030859420008AC06002010B5064CC8
:101BD00001210020224608F061FDD4ED007AFCEEE0
:101BE000E77A17EE900A10BD9806002010B5064C53
:101BF00004210020224608F051FDD4ED007AFCEECD
:101C0000E77A17EE900A10BD94060020F8B5164C3E
:101C100002210120224608F0E9FEA668D4E9000767
:101C20004043FEF79FFC04460D4607FB07F0FEF716
:101C300099FC02460B4620462946FEF747FB044620
:101C40000D4606FB06F0FEF78DFC02460B462046CD
:101C50002946FEF73BFB41EC100B35F024FF51EC1D
:101C6000100BFEF7C1FFF8BD74060020034B0022E5
:101C70001B685A625A6A8242FCD370475808002097
:101C80004021064808B509F013FC012804D00C21B6
:101C900003480BF09DFE002008BD00BF001C024061
:101CA000C00700200000000038B5037F0446022B67
:101CB00012D12B4D2B7883B904210BF099FA294BC3
:101CC000186001232B7023681A6A22F0A0021A629E
:101CD0001A6A42F020021A6238BD012BFCD104219D
:101CE0000BF086FA204B2468186000231F4A6362B9
:101CF0001C4B1B68984226D9C01A1060106807EE6A
:101D0000900AF8EE677A17EE900AFEF73DFC12A3F0
:101D1000D3E90023FEF790FC0022154BFEF78CFC64
:101D2000FEF782FF134B186000232B70236A23F009
:101D3000A0032362236A23620F4B1A68D36823F03F
:101D40000403D360C8E73FBFC3F57F43FF331B18CD
:101D50001360D3E7AFF300809CC420B07268A13F4A
:101D600084060020900600208C06002088060020B3
:101D70000000E03F800600207407002010B5184CDA
:101D800001220421204609F099FB0A20FFF76EFF8B
:101D900004212046002209F091FB124B124C322004
:101DA0001A68D36843F00403D36008F0A7FFD4EDAA
:101DB000007A9FED0E7A67EE877AC4ED007A17EE0F
:101DC000900AFEF7E1FB02460B46094837F09CFCFF
:101DD000D4ED007AFCEEE77A17EE900A10BD00BF52
:101DE0000020024074070020800600200000C84246
:101DF000C0BA0308B42A4FF47A7328BFB422082962
:101E000002FB03F34FF0B402B3FBF2F3026803F5F5
:101E10007A730FD004D849B1042909D0D36570472B
:101E20000C2909D01029F9D1936570475363704785
:101E300093637047D3637047136470470268034B22
:101E40009A4201D108F048BF704700BF001000401F
:101E5000704700000D4B82B00F216FF001001A6C2B
:101E600042F080521A641A6C02F080520092009A7A
:101E70005A6C42F480425A6400225B6C03F4804343
:101E80000193019B02B008F05DBF00BF0038024023
:101E9000026882B0084B9A420BD1D3F8302803F580
:101EA000006342F480521A631B6B03F48053019366
:101EB000019B02B0704700BF003002400E4B07B5D7
:101EC00002689A4215D1A3F5F04305215A201A6BF6
:101ED00042F400021A6300221B6B03F40003019317
:101EE000019B08F02FFF5A2003B05DF804EB08F0C7
:101EF0005BBF03B05DF804FB00B0024010B5A8B0B2
:101F000004461422002102A837F068FD8422002133
:101F100007A837F063FD2268174B9A422AD14FF485
:101F2000803307A807930AF06BFD08B1FFF790FF15
:101F3000124C4FF4C07201211148236B43F080030F
:101F40002363236B03F080030093009B1223CDE9EE
:101F500002230323CDE90413042302A9069309F005
:101F600029F9236C43F400032364236C03F4000376
:101F70000193019B28B010BD005C00400038024076
:101F8000001C0240026808B5094B9A420FD1094A69
:101F900080210948136C23F40003136409F0EEF95F
:101FA0004FF480710448BDE8084009F0E7B908BD66
:101FB000005C004000380240001C024070B5ACB02C
:101FC00004461422002106A837F008FD84220021CF
:101FD0000BA837F003FD2268484B9A4240F08C80F2
:101FE0000823052001240B934FF4C07310930223A0
:101FF000CDE911304FF400330BA8CDE915430AF0B9
:10200000FFFC08B1FFF724FF3D4B002402250E26FC
:102010005A6C06A93B4842F080625A645A6C02F03E
:1020200080620092009A1A6B42F010021A631A6BD7
:1020300002F010020192019A1A6B42F400721A63C4
:102040001A6B02F400720292029A1A6B42F48062D6
:102050001A631A6B02F480620392039A1A6B42F0BD
:1020600040021A631A6B02F040020492049A1A6B3F
:1020700042F480721A631B6B03F480730593059B13
:102080001023CDE90635CDE908440A9609F092F807
:102090004EF6FF7306A91C480A96CDE90635CDE930
:1020A000084409F087F8F72306A918480A96CDE9ED
:1020B0000635CDE9084409F07DF84FF4805306A9B0
:1020C0001348CDE906350923CDE908440A9309F000
:1020D00071F84FF4464306A90E480A96CDE9063535
:1020E000CDE9084409F066F858202246052108F099
:1020F00029FE582008F058FE2CB070BD0068014041
:102100000038024000100240002402400028024033
:102110000018024000200240142200212DE9F04165
:102120008AB004460DEB020037F058FC22682C4BB5
:102130009A4251D12B4B0225032409269A6B4FF06A
:10214000040805A9284842F0020200279A639A6B06
:1021500002F002020192019A1A6B42F010021A6315
:102160001A6B02F010020292029A1A6B42F00202FB
:102170001A631A6B02F002020392039A1A6B42F07E
:1021800008021A631B6B03F008030493049BCDE958
:102190000585CDE9084609F00DF8402305A9134847
:1021A000CDE905350A23CDE90774099309F002F852
:1021B00005A90E480996CDE90585CDE9077408F013
:1021C000F9FF4FF4605305A909480996CDE9053593
:1021D000CDE9077408F0EEFF0AB0BDE8F08100BF5A
:1021E000001000A00038024000100240000402402D
:1021F000000C02401FB50368224A934214D1224BBF
:1022000005211B205A6C42F001025A6400225B6CCB
:1022100003F001030093009B08F094FD1B2005B020
:102220005DF804EB08F0C0BDB3F1804F0DD103F5AC
:102230000E331A6C42F001021A641B6C03F00103A6
:102240000193019B05B05DF804FB104A93420AD14B
:102250000D4B1A6C42F002021A641B6C03F002036D
:102260000293029BEEE70A4A9342EBD1064B1A6CAB
:1022700042F008021A641B6C03F008030393039BEB
:10228000E0E700BF000001400038024000040040C9
:10229000000C004010B588B004461422002103A8A9
:1022A00037F09CFB2268164B9A4226D103F508337F
:1022B00003A914481A6C42F040021A641A6C02F026
:1022C00040020192019A1A6B42F002021A634FF423
:1022D00000421B6B03F002030293029B0223CDE931
:1022E00003230923079308F065FF2B200022052113
:1022F00008F028FD2B2008F057FD08B010BD00BFE6
:1023000000180040000402401422002110B58AB0D9
:1023100004460DEB020037F061FB23682A4A934222
:1023200017D12A4B1A6B42F001021A631B6B03F0A0
:1023300001030193019B4FF480730593022305A9C8
:102340002348069308930123099308F033FF0AB04A
:1023500010BDB3F1804F0DD103F50E331A6B42F06F
:1023600001021A631B6B03F001030293029B4FF4FB
:102370000043E2E7174A934211D1144B102116484B
:102380001A6B42F002021A631B6B03F00203039301
:10239000039B0223CDE90513099305A9D5E70F4A4D
:1023A0009342D4D1094B05A90D481A6B42F48072AF
:1023B0001A6301221B6B03F480730493049B0223B2
:1023C000CDE905230993C0E7000001400038024031
:1023D000000002400004004000040240000C0040E5
:1023E00000200240F0B5ABB004461422002104A83E
:1023F00037F0F4FA8422002109A837F0EFFA2268B6
:10240000204B9A423CD1402309A809930AF0F8FADC
:1024100008B1FFF71DFD1C4B0227002603255A6C4F
:10242000072404A9194842F010025A645A6C02F0B9
:1024300010020192019A1A6B42F002021A631A6B9F
:1024400002F002020292029A1A6B42F001021A632F
:102450001B6B089403F001030393039B8023CDE9D6
:102460000665CDE9043708F0A5FE4FF4007304A912
:1024700007480894CDE90437CDE9066508F09AFECF
:102480002BB0F0BD001001400038024000040240B3
:1024900000000240F0B5002387B00393294B1E686B
:1024A000002E4DD10122022703250C241A6001A918
:1024B000254B26489A6B42F001029A639B6B03F00E
:1024C00001030093009B4FF68373CDE90454CDE9DB
:1024D000013708F06FFE48F2331301A91C48059438
:1024E000CDE90137CDE9036508F064FE4CF20373D2
:1024F00001A918480594CDE90137CDE9036508F035
:1025000059FE4FF63F0301A913480594CDE9013761
:10251000CDE9036508F04EFE282301A90F48059474
:10252000CDE90137CDE9036508F044FE082301A990
:102530000B480594CDE90137CDE9036508F03AFE73
:1025400007B0F0BD9C0A0020003802400010024095
:1025500000180240000C024000140240001C02401F
:1025600000080240214B1A6C42F0100270B588B08E
:102570001A641B6C054601A903A803F0100302931B
:10258000029B0AF01FFA069B4BBB0AF0FBF9184EA0
:10259000184B336040F2E733F360174BB0FBF3F3B3
:1025A000013B3046736000233361B360B3610AF0CE
:1025B00031FF044680B930460AF0DCFD044658B9C4
:1025C000362008F0F1FB0F2D0DD822462946362083
:1025D00008F0B8FB094B1D60204608B070BD0AF03A
:1025E000D1F94000D3E70124F6E700BF00380240EC
:1025F000A00A00200010004040420F00900100207F
:102600007047FEE7FEE7FEE7FEE7704701480AF085
:1026100008BE00BFA408002001480AF002BE00BFA7
:102620007407002001480AF0FCBD00BFA00A00208A
:10263000014809F0E7BB00BF3C090020014808F051
:10264000E8BC00BF380A00200120704708B537F009
:10265000DBFA162303604FF0FF3008BD08B537F0F2
:10266000D3FA16230360FEE770B50D4614460E46F6
:10267000731B9C4201DC204670BDFEF72FFE06F85E
:10268000010BF5E770B50D4614460E46731B9C42D0
:1026900001DC204670BD16F8010BFEF70FFEF5E7D2
:1026A0004FF0FF3070474FF4005300204B607047ED
:1026B00001207047002070470B4A0346116810B58F
:1026C00009B90A491160106809490A4C0344091BF9
:1026D0008B4206D937F098FA0C2303604FF0FF3095
:1026E00010BD1360FCE700BFEC0A0020C06B0120A6
:1026F00000000520000A000070470000DFF834D019
:10270000002103E00C4B5B58435004310B480C4B49
:1027100042189A42F6D30B4A02E0002342F8043BE7
:10272000094B9A42F9D308F0DDF937F073FAFEF756
:102730008DFE704700000520E41C04080000002006
:10274000E403002000060020BC6B0120FEE7704778
:1027500008B501F049F9BDE8084001F0CDB801F035
:1027600045B9406870474160704700004FF0E02273
:10277000D2F8FC3D43F08073C2F8FC3D054B064A9D
:10278000D3F8B01F0A43C3F8B02F1A6842F0010211
:102790001A607047001000E055CEACC5521A02EB2B
:1027A0005302B2FBF3F07047014B5868704700BF0B
:1027B000001000E0704710B504460C2135F04CF9CC
:1027C000204610BD036810B51B69044631B1984717
:1027D000A26863689B1A0344636010BD9847A060B9
:1027E000FBE70000024B7020024A1360DB681847C9
:1027F00064010020F00A0020704710B5044604214F
:1028000035F02AF9204610BD73B50E4E0D4614461C
:10281000336813B9002002B070BD1B69702098475F
:102820000028F7D03368702001AA0DF106015B691A
:102830009847BDF8043001202B60BDF806302360B6
:10284000E9E700BFF00A00207FB501238DF81720CB
:102850004FF47A72CDE901320DF1170200920A4667
:102860000146054808F0DAFF10B1034808F0BCFF44
:1028700007B05DF804FB00BFE40900207FB500232A
:102880000A464FF47A718DF817300123CDE90131F2
:102890000DF1170100910146054809F099F810B1B2
:1028A000034808F0A1FF9DF8170007B05DF804FB8E
:1028B000E4090020012802D0022809D07047084B03
:1028C00040215A68B2FA82F25209064808F0F6BD71
:1028D000034B80219A68B2FA82F25209F5E700BFF1
:1028E000F40A002000080240012802D0022809D082
:1028F0007047084B40215A68003A18BF0122064829
:1029000008F0DCBD034B80219A68003A18BF012211
:10291000F5E700BFF40A002000080240012802D0B9
:10292000022804D070474021024808F0CCBD802125
:10293000FAE700BF00080240012808B506D00228C7
:1029400009D00020431E5842584108BD4021034889
:1029500008F0AEFDF6E78021F9E700BF000802406D
:1029600070B5084D00240126E0B2FFF7E5FF18B16D
:102970002B68012B18BF2E6001340435052CF3D1D0
:1029800070BD00BFF40A0020012380F8781080F8A1
:10299000793070477047002070470000416400396B
:1029A000024B18BF01211970704700BF7B5E0120E8
:1029B000704700207047836B0BB10846184770477B
:1029C0004FF6FF707047406803689B69184770476F
:1029D0007047704738B5044601F05EF9084923682E
:1029E0002046084DD3F8903098470023284684F8B5
:1029F0004A30FFF7BBFE0123256184F8703038BDF3
:102A0000000000C0040B002001F0EAB801F0EEB8AD
:102A100070B501F06BF910490023C1F88430BFF3A1
:102A20004F8FD1F8803043F6E074C3F3C900C3F38D
:102A30004E335B0103EA0406024646EA8275013A18
:102A4000C1F87452F9D2203B13F1200FF2D1BFF339
:102A50004F8FBFF36F8F70BD00ED00E001F048B9FC
:102A600001F09AB801F06ABA01F072BA01F09EB8AA
:102A700010B504461CF026FC23682046D3F8BC3071
:102A8000BDE8104018471BF039BE10B5044684213C
:102A900034F0E2FF204610BD90F834100D4B10B515
:102AA00090F878401A788C4209D03AB90A490B4A12
:102AB00008881488108001220C801A7010BD002A2A
:102AC000FCD0064A0449148808880C801080002233
:102AD000F3E700BF745E0120725E0120705E01208A
:102AE00070B50D46194635B9094B40F2FF21094A28
:102AF000094835F0EFFFC0E90F52003A074B18BF05
:102B000001221A700368BDE87040D3F8903018476E
:102B1000F3BA03082BBB030879BB03087A5E0120D4
:102B200008B5094B1B888B4203D8084B1B8893427E
:102B300005D9074BA321074A074835F0CBFF074BC0
:102B40001980074B1A8008BD705E0120725E01205B
:102B5000BEBB030821BC030879BB0308765E0120D5
:102B6000785E0120034690F87A0018B1586803682F
:102B70001B68184770470000014608B5034B1868EA
:102B800001B101211CF0B8FB012008BD7C5E0120D1
:102B9000034B00225A609A60024A1A60704700BFD5
:102BA000040B00203CEF03080121002208B5084671
:102BB0000BF0E0FC0A4B186028B90A4B28210A4A9E
:102BC0000A4835F087FF0022042101200BF09CFD0C
:102BD000074B186018B9074B2C21034AF0E708BDD2
:102BE000140B002064BC0308ADBC0308DCBC030864
:102BF000100B002045BD0308024B4FF0FF31186851
:102C00000BF010BD140B0020014B18680BF046BDF3
:102C1000140B0020024B002118680BF003BD00BF0D
:102C2000140B0020FFF7F0BF0023034803491A46A6
:102C300000680BF0AFBD00BF100B002004000020A7
:102C400013B50023074C01A91A4620680BF0E4FDD8
:102C50004FF0FF33002201A920680BF0DDFD02B028
:102C600010BD00BF100B002003685B6C18470120EB
:102C7000704703689B6A1847FEE700000E4B82B05E
:102C80001A6B42F400021A631A6B02F400020192FA
:102C9000019A1A6942F400021A611A6922F40002C8
:102CA0001A61064B064A1A61064A5A614FF0806261
:102CB000054B9A6002B0704700380240380A002085
:102CC000552F0008792C000800E100E040F2EF30B9
:102CD00070470000054B4FF080620360044BC3F85F
:102CE0008820BFF34F8FBFF36F8F704768F00308E2
:102CF00000E100E010B504464FF45A61FFF7EAFF27
:102D0000204634F0A9FE204610BD000008B50A2870
:102D100009D8DFE800F006100E08080808101010A7
:102D20001000022008BD054B9021054A054835F0EA
:102D3000D1FE0020F6E70120F4E700BF87BD0308BD
:102D4000A2BD0308EDBD030838B50C46887FFFF728
:102D5000DDFF174BA58AE28A586342EA05422169E2
:102D60005A64628BD963521B1A642568082D0ED1F0
:102D70009A611A6158620F4A207F42EA0062DA6162
:102D8000E2681A620C4A5961D9601A6038BD0022A3
:102D9000D8611A61E1680A0A4809C1F3C40102F462
:102DA000784200F4FC6002430A439A63034AECE76A
:102DB00000B00240090001000123020001230300CA
:102DC00008B50B280BD8DFE800F00612100A0A0A33
:102DD0000A0808080808022008BD0520FCE7054B82
:102DE0006F21054A054835F075FE0020F4E7012003
:102DF000F2E700BF87BD030854BE0308EDBD03081A
:102E00002DE9F04191F81D800C464046FFF7D8FFB0
:102E1000A77F05463846FFF7D3FF06463846FFF73B
:102E200075FFA18A628B434B521A1A649A61228BF6
:102E3000521A1A61E28A586342EA014221695A64CD
:102E40006268D963DA602068802828D0227F0FD892
:102E5000202866D0402864D004281AD045EA0265AC
:102E6000344BB84545F40035DD6160D0324A44E06A
:102E7000B0F5807F04D0B0F5007FEFD12F4800E09F
:102E80002F4840EA0262DA61E2681A625E625961C2
:102E900032E045EA026242F40032DA61F6E7A06805
:102EA000021DDA62227F45EA026545F40035DD61E4
:102EB0005E625961017841B1012921D0214B4FF463
:102EC0008D71214A214835F005FEDA69418822F4E6
:102ED0007F42013922F0100242EA01220121DA6127
:102EE000144BDA6942F02002DA61DA699206FCD406
:102EF00010229A600029B9D0154A1A60BDE8F08105
:102F0000B2F1FF01DA69408822F47F4218BF012143
:102F1000013822F0100242EA002242F01002DA6187
:102F2000DEE745EA0262034B42F40032B5E742F2C3
:102F30000132E2E700B00240012301000900020073
:102F40000A0002009EBE0308B8BE0308EDBD0308D8
:102F500001230200024B1B68586803685B6918472D
:102F60007C5E012070B504460A4B0C3000262546D5
:102F7000602260602672667245F8203B29461CF08C
:102F80000FFB04F55A63EE6024359D42FBD12046C9
:102F900070BD00BF68F00308034B1A68D207FCD469
:102FA00023229A60704700BF00B00240094B5A6963
:102FB000D2030AD5BFF34F8F08440029A0EB0102CA
:102FC00004DCBFF34F8FBFF36F8F70472039C3F816
:102FD0006822F2E700ED00E030B5104C2568ED07FF
:102FE000FCD423250904FF2BA56041F001014FF01B
:102FF000020565636164E0630AD00949656241EADC
:103000000363E361074B22626061E060236030BDCF
:10301000E561039BA363044BF8E700BF00B00240E7
:1030200009000100010002000100030030B50F4C4F
:103030002568ED07FCD423251204FF2BA56042F080
:1030400001024FF0020565636264E063E16008D04D
:103050001B0643F00213E361054B65626061236068
:1030600030BD044BE3610123F9E700BF00B002402B
:1030700001000200020002FF30B50B4C2568ED078D
:10308000FCD4232512041B06A56042F00102022590
:1030900043F4003365636264E063E160E361034B22
:1030A00065626061236030BD00B002400100020033
:1030B0004069704790F844007047036B23B9C06AB9
:1030C000003818BF012070470120704780687047A2
:1030D000043010B50C460FC884E80F0010BD7047CF
:1030E00008B5034A40F21221024B034835F0F2FCC6
:1030F000F6BE03081ED9030851BF030810B50446E5
:10310000482134F0A9FC204610BD00002DE9F04311
:103110001D46ADF51F7D436B06460F469046BDF834
:103120009842002B35D0002203A8DFF8A490CDE907
:10313000013213F059FC4FF4F4725021249024A86A
:103140000DF007FC4246394624A80EF051FB012140
:1031500024A80DF0F9FC022324A88DF8D8300DF036
:1031600094FD2B9B419AA342BDF89C7228BF234635
:103170009742A4EB030428BF174603EB43086400FF
:10318000479B9F4209D824A80DF000FD24A80DF00C
:103190002DFC0DF51F7DBDE8F083012201A924A8B7
:1031A0000DF0BCFD736B03EB0800984201D8254479
:1031B000E6E759789A78C90009EA022201F4FC612D
:1031C0000A4313F8031B42EAD10225F8022BECE76D
:1031D00000F8FFFF0A4A02600022C0E90522C0E9A8
:1031E0000722C0E90922C0E90B22C0E90D12C0E99B
:1031F0000F2280F84420C0E90322C0E90122704771
:10320000B8F0030810B40C4611461A46036B3BB1E4
:10321000036C806BE41A20445DF8044B36F0E6BB87
:10322000C06AF8E7036B10B573B1036C826BC91AFF
:103230005318525C98785C780004DB7840EA0420EC
:10324000104340EA036010BDC36A5858FBE7036BA4
:1032500043B1036CC91A836B5A18585C527840EA20
:1032600002207047C36A585A7047000070B5044680
:10327000006B0D461646D8B1E36B934208D2092382
:103280000D4A65210D4884F844300D4B35F022FC81
:103290000368DB689847206B3246A16B03681B69A3
:1032A000984710B90D2384F84430A06B256470BD95
:1032B000E06A0844FBE700BFD7BF030851BF03081B
:1032C000C4BF03082DE9F843436904462BB9234BD7
:1032D000AA21234A234835F0FDFB08228169FFF724
:1032E000C5FFA16943F2300646F264370431204637
:1032F000FFF798FFA3691844A36A00F108029A42F5
:1033000006D3012300206361236AA361BDE8F8832B
:10331000636909300822013320F00101204663610E
:10332000A161FFF7A3FFD4F8189020464946FFF7A4
:103330008EFF09F1020180462046FFF788FF09F160
:10334000040105462046FFF76DFFB045D2D1BD42CE
:10335000D0D10028CED00120D8E700BF19C0030883
:1033600062C0030851BF03082DE9F04F0446ADF5D4
:103370001F7D8A461646816908229846FFF776FF28
:10338000A7692046391DFFF74DFF07F108010246E6
:1033900005462046FFF76AFF636B074633B93C4B8F
:1033A00040F2AB113B4A3C4835F094FB002203A8A5
:1033B000CDE9013213F018FB4FF4F4725021249040
:1033C00024A80DF0C6FA2A46394624A80EF010FAB1
:1033D000012124A80DF0B8FB022324A88DF8D830D1
:1033E0000DF053FCBAF90250479BAB4229D3BAF90E
:1033F00000904FEA4808BAF804702B9B08FB05665A
:103400004F44BAF80250DFF894B03FB29F4228BF51
:103410001F46BAF8063009EB490A1D44419B2DB2FC
:103420009D4228BF1D46479B9D4210D824A80DF001
:10343000ADFB24A80DF0DAFA01200DF51F7DBDE8E3
:10344000F08F012201A924A80DF068FCCCE701222D
:1034500001A924A80DF062FC626B49465244B942AE
:1034600002F1030201D34644DDE712F8020C12F820
:10347000013CC0000BEA032300F4FC60034312F894
:10348000030C43EAD00326F811300131E7E700BF0F
:1034900095C00308EBC0030851BF030800F8FFFF05
:1034A0000129036838BF0121DB6A70B50D46044667
:1034B0009847A84204D223682046DB6A984705460D
:1034C0006B1EE6691022204606EB031606F1080182
:1034D000FFF7CCFE06F110012046FFF7A3FE236A9A
:1034E000043B0344C4E9055370BD00000021482299
:1034F0002DE9F0410446816180F84410FFF7B6FEE3
:10350000A6690423624A31462046FFF77BFE40B19C
:103510000323604AF22184F844305F4B5F4835F062
:10352000D9FA06F1080104235D4A2046A161FFF79C
:1035300069FE30B10423574AFA2184F84430594BCC
:10354000ECE706F10C010423574A2046A161FFF77E
:1035500059FE074638B105234E4A40F2011184F85E
:103560004430524BDAE706F110012046FFF75AFECD
:10357000054620B94E4B40F20711464ACEE706F108
:10358000140804234B4A20464146FFF73BFE00281F
:1035900049D0062384F844300423474A06F1180131
:1035A0002046FFF72FFE00283FD0072384F8443041
:1035B0004544424F0C2220462946FFF757FE05F1AD
:1035C000080604233A4620463146FFF71BFE94F8CE
:1035D0004430002848D0002B48D1A36AAB4249D8D8
:1035E00005F10C0304352046A3612946FFF71AFEB6
:1035F0003044294660622046FFF714FE0644042248
:1036000020463146FFF732FE04232D4A314620463C
:10361000FFF7F8FD002838D10123E6616361A36953
:103620002362BDE8F0810127B6E7002FC0D006F184
:1036300020012046FFF7F6FD4FF47A7306F13001C2
:10364000B0FBF3F060602046FFF7ECFD06F14001AF
:10365000A0602046FFF7E6FD06F14401E060204649
:10366000FFF7E0FD2061A3E7002BB9D00A2384F81F
:103670004430D6E7291D2046FFF7D4FD85190C22DA
:1036800020462946FFF7F2FD99E70B23EFE700BF3D
:1036900045C1030863C103084AC1030851BF0308B9
:1036A00090C1030895C10308ADC10308B2C1030866
:1036B000C8C10308D4C10308D9C10308DEC1030887
:1036C000E3C10308C0E90A2100220263FFF70EBF2D
:1036D00010B5002304460846E3620B6821639B682B
:1036E0009847A0622046BDE81040FFF7FFBE70B4C7
:1036F000BDF80C50BDF810602AB123B1CDE90356D6
:1037000070BCFFF703BD70BC704700002DE9F04F9F
:103710009946436985B004460F4690462BB9294B1C
:103720007721294A294835F0D5F908228169FFF720
:103730009DFDA66920463146FFF789FDB11C8346F1
:103740002046FFF784FD311D82462046FFF76AFDC3
:1037500006F10801A36A05460A189A4226D243F2E6
:1037600030039B4517D146F264339A4513D190B18B
:103770000246A1612046FFF779FD0E9B01462A46CD
:103780002046CDF80080CDE901933B46FFF7AFFF1F
:10379000636901336361A3692B4405B908330133BD
:1037A000626A23F001039342A36109D1012301203E
:1037B0006361236AA36180F0010005B0BDE8F08F6A
:1037C0000020F8E719C00308E8C1030851BF030847
:1037D0000120704714207047142303FB01000830B8
:1037E0007047142303FB0100083070470120704725
:1037F00040F23440704740F2344303FB010008308C
:10380000704740F2344303FB010008307047012049
:1038100070471020704700EB01100830704700EB34
:10382000011008307047084601F004BD034B10B585
:10383000044603601AF0DAF8204610BD60F1030870
:1038400010B50446FFF7F2FF1C21204634F004F9BE
:10385000204610BD034B10B5044603601AF0C6F8AD
:10386000204610BD2CF1030810B50446FFF7F2FF07
:1038700040F23C41204634F0EFF8204610BD0000F5
:10388000034B10B5044603601AF0B0F8204610BD93
:10389000F8F0030810B50446FFF7F2FF18212046A0
:1038A00034F0DAF8204610BD084B10B5044603602A
:1038B00000F58D60FFF7BAFF04F12C00FFF7CAFF97
:1038C00004F11400FFF7DCFF204610BD94F103085B
:1038D00008B50248FFF7E8FF08BD00BFF019002057
:1038E00010B50446FFF7E0FF4FF4BE61204634F008
:1038F000B3F8204610BD00002DE9F34101F08AF92C
:103900000024054601F08AF923460146224628464E
:10391000009424F0DDFF274B274A2046274D1A60EC
:1039200002F0B0FC264B274A27489A6024F038FF63
:103930002B68BFF35B8FDB0735D4284634F08EF855
:1039400088B3224C224B04F2944604F1140004F193
:103950002C0804F58D6723606060C4F80880E76078
:1039600026611AF045F81B4B404663611AF040F897
:10397000194B3846E3621AF03BF8184B04F28440C6
:10398000C4F8683403F0BCF8224604F2844130469F
:1039900002F0B8FF304601F04DFC114835F0B8F8A0
:1039A000284634F067F80F4802B0BDE8F041FFF751
:1039B00011B800BFE05E01209C0B0020EC19002034
:1039C000BC0B0020A00B002008000020F0190020F4
:1039D00094F10308F8F003082CF1030860F10308E0
:1039E000D1380008180B00207047000001481AF079
:1039F000EEBE00BF180B002070B5264E264B274C9C
:103A00003046274D2360FFF7ADFA28462AF072F8BA
:103A1000244822F05BFB244B00224FF480712348A2
:103A20001A8683F858205A6683F870205A67DC603B
:103A3000C3E912121E49C3E91A121E49C3E91E0145
:103A40001D491E48C3F880101D490B604FF4F071EA
:103A5000C3E90422C3E90622C3E90822C3E90A2212
:103A6000C3E90E22C3E91022C3E91422C3E91722D5
:103A7000C3E901650180134883F8342001804FF4C5
:103A80008871114801801148018011490A70114A5A
:103A90001A6070BD480C002064EF0308E81900208C
:103AA000BC0B0020A00B0020180B0020000001011F
:103AB000010000010004440016001400705E0120A3
:103AC0007C5E0120765E0120725E0120785E01201E
:103AD000745E01207CEF03080148FFF7FBB800BFCC
:103AE000480C00200020704781807047C1807047DB
:103AF0000181704741817047704770477047704738
:103B0000704710B4C4880368121B84885B6D091B5E
:103B100012B25DF8044B09B218474FF6FF73838168
:103B20004FF0FF3303621368C361106070470020D9
:103B300070478B88838001207047704780F826107B
:103B4000704790F82600704710B50022B1F9084080
:103B5000B1F90A10028042808480C18010BD002229
:103B6000028042808280C28070470177704780ED7A
:103B7000080A704780F82410704780F825107047B5
:103B800001207047983070478C3070478430704700
:103B90007047704770470000034B902283F85A2308
:103BA00083F85823704700BF00E100E0094A0A4942
:103BB000D3680A48C3F30A03013B9BB20B80116927
:103BC000C1F30A01013901801364536B43F001030F
:103BD0005363704700680140E21F0020E01F00208F
:103BE000014BD3F8AC00704700680140024B012242
:103BF000C3F8AC105A62704700680140124A53691A
:103C0000DB0370B51ED50023C2F88430BFF34F8F9D
:103C1000D2F8803043F6E074C3F3C900C3F34E33E7
:103C20005B0103EA0406014646EA81750139C2F8E0
:103C30007452F9D2203B13F1200FF2D1BFF34F8F12
:103C4000BFF36F8F70BD00BF00ED00E070473823F9
:103C5000002201FB0333C25490F838300BB9036CD7
:103C600083647047704780F84C10704710B5044665
:103C7000582133F0F1FE204610BD10B504462C212A
:103C800033F0EAFE204610BD10B50446BC2133F0E7
:103C9000E3FE204610BD000038B504461AF083FD4F
:103CA00023689D6E20F032FF01462046A847236816
:103CB000084A2046D3F88C500023A2F57F31A8474C
:103CC000054B064A5A60064A1A649A644FF4FF226A
:103CD0005A6438BD00F807C0A4200020FC20002052
:103CE00000F40BC01AF046BD1AF050BD1AF00CBD1E
:103CF0001AF08DBE90F8252012B103685B69184751
:103D00007047000008B531B1044B40F29711044AE6
:103D1000044834F0DFFE90F8390008BD43C20308C0
:103D200057C20308E4C3030810B531B1064B40F293
:103D30009111064A064834F0CDFE406811460368EA
:103D4000BDE810401B6B184743C2030826C4030894
:103D5000E4C3030808B529B1034B7A21034A044898
:103D600034F0B8FE006908BD43C20308D7C5030894
:103D7000E4C3030808B529B1054B8321054A064869
:103D800034F0A8FE41618160C0E9063208BD00BF81
:103D900043C203088FC70308E4C3030810B50446F1
:103DA00029B1274BA421274A274834F093FE052A3E
:103DB00034D8DFE802F003292F34393E4068036825
:103DC0001B69984750B34FF0FF31606D0AF076FBE6
:103DD0000023012294F83E1084F83B3084F8392007
:103DE000A360636101B1226284F83E306362E36ADA
:103DF0002BB90123206D84F83A300AF04FFC606D36
:103E0000BDE810400AF08ABB002380F8393084F8FE
:103E10003E3003E0036200238360436110BD036210
:103E2000002383604361F2E7002380F839300123E7
:103E3000EDE7003B18BF012380F83D30EEE700BFFF
:103E400043C203084EC90308E4C3030890F82520C1
:103E50001AB190F8242002B11860704770B504467A
:103E6000164629B1314BE721314A324834F032FE4F
:103E700090F8393033B1304B1B6893F86B204369AD
:103E800013444361E36A002B4DD0E169D4E9053264
:103E90005343A2684A43934220D2236A002B42D064
:103EA0004FF0FF31606D0AF009FB236A0BB100236C
:103EB000E362E36AFBB90125606D0AF02FFB94F819
:103EC00039300BB9236A3BB1E36A2BB90123206D6A
:103ED00084F83A300AF0E2FB284670BD94F84C00B2
:103EE0000028DDD09B1AB3FBF1F2994298BF02F192
:103EF000FF326262D4E7002294F83C50A36230465D
:103F0000E262E2682261A2680132A2603363336830
:103F10005B699847002DCED194F83D30002BCBD172
:103F200084F83950C8E70125C9E700BF43C2030838
:103F300025CB0308E4C303087C5E0120034B4FF04C
:103F400080629A604FF080729A60704700E100E0F2
:103F5000084B4FF08062C3F88820BFF34F8FBFF348
:103F60006F8F4FF08072C3F88820BFF34F8FBFF37D
:103F70006F8F704700E100E038B5034690F83800D5
:103F800038BB01229860D8609A634FF48072586100
:103F90009A874FF4F0729861D861186258629862FB
:103FA000D8621863586383F83E00CA864FF488725B
:103FB00081F834000A8708639A6C186102F5FF24BF
:103FC000D3E9101529448C420AD9084B5821084AD4
:103FD00003E0084B40F2F511074A084834F07AFD37
:103FE0001A6302F57F329C645A6338BD83CE03089E
:103FF000C3CE0308C9CC0308F9CC0308E4C3030803
:10400000002370B5124E05468380124B036033685F
:1040100093F858200AB1D86C00B998680368DB6A35
:1040200098473368B0FA80F4D86C640930B10368FB
:10403000DB6A9847002808BF44F001042CB9064BFE
:104040002C21064A064834F045FD284670BD00BFC5
:104050007C5E0120A8F1030869D00308C7D00308DB
:1040600000D1030870B5254E3568BFF35B8F15F09E
:10407000010540D1304633F0F1FC00283BD0204C04
:10408000204B04F134002561E584A562A585C4E9CF
:104090000035C4E9025522F0FEFA04F158001CF084
:1040A00037FF194B2046A365184B40F8843BFFF7B8
:1040B000A7FF174B1748C4F884302433C4F8905036
:1040C000C4F88C304FF4C803C4F89C50C4F8A8500E
:1040D000C4E928350023C4F8AC30C4F8B030C4F8C3
:1040E000B430C4F8B8300C4BC4F8983034F010FD3C
:1040F000304633F0BFFC024870BD00BFE41F002013
:10410000E81F0020780D0408C8F1030840F20308F6
:104110002C0D0408953B00080C0D040838B5184C0C
:1041200023685BB3174B184A1B6C11888B4216D15E
:10413000164B0025198807F0EFFE236893F86A20D4
:1041400083F87C50013283F86A20FEF76DFD206809
:104150001BF0B8F82846BDE83840FEF7ABBB07F0C7
:10416000DBFE2468236820461B6A98470123002051
:1041700084F87C30BDE83840FEF7B6BB38BD00BFE0
:104180007C5E012000680140E21F0020E01F00204B
:104190002DE9F74304464FF4707894F83A304FF025
:1041A000FF31002B31D0606D0AF088F9276BA36ACC
:1041B000BB4200D1676B266A656856B32B683146EF
:1041C00028465B6A98470023236284F83B30606D81
:1041D0000AF0A4F92B684FF4F0723946CDF800804C
:1041E00028465E694FF48873B0474FF0FF310646AA
:1041F000606D0AF063F994F83B30E3B1002384F872
:104200003B30606D0AF08AF9C7E7206D0AF00AFAC0
:10421000C3E7636A002BDAD02B682846D3E90993F9
:104220009847616A01442846C847A368626A666283
:104230001344A360CBE7E7625EB12B6828469B6A14
:10424000984701380023E06084F83C6084F83A30F5
:10425000D7E70120F6E70000014808B5FFF798FF0F
:10426000A42000200368042270B504465E6A00237F
:104270000D46B0474FF0FF31606D0AF01FF938234B
:1042800003FB0542D16A09B10021D16203FB054558
:10429000012385F83B30002385F83930606DBDE897
:1042A00070400AF03BB938B500EB810304460D4677
:1042B000114658680368DB68984729462046FFF78F
:1042C000D1FF38BD70B50D461146044600EB85029E
:1042D0005068026896681A46B04729462046FFF79C
:1042E000C1FF70BD38B5164900251648FEF772FFAC
:1042F000154C164B01202A46294623604FF4807343
:10430000A564A38784F84C0084F83E50C4E9105596
:10431000C4E91455C4E90155C4E90355C4E9055578
:10432000C4E90755C4E90955C4E90B55C4E90D555D
:104330000AF020F9206528460AF07CF8606538BD4F
:1043400044210020FC200020A42000208CF203083F
:10435000806A704770477047704770477047704772
:1043600030B585B00368044601816D460146D3F837
:1043700084303C342846984795E8070084E80700D5
:1043800005B030BD30B585B00368044641816D4647
:104390000146D3F884303C342846984795E8070016
:1043A00084E8070005B030BD002202804280828090
:1043B000C280704780F836107047036870B50446B5
:1043C0001B6B154698472368204629465B6EBDE85F
:1043D0007040184700207047806C704770477047E6
:1043E0007047704770477047704730B44468034661
:1043F000C2689B68551004EB6200D20748BF62593F
:1044000030BC48BFD35818470346406830B19A685B
:104410001AB9D86800F0010070470120704730B425
:1044200044680346C2689B68551004EB6200D207DB
:1044300048BF625930BC48BFD3581847034640684C
:1044400030B19A681AB9D86800F0010070470120AD
:10445000704790F82D3080F85C307047014634305A
:1044600091F82C3013B162311DF063BE6031FBE76F
:1044700010B50446082133F0EFFA204610BD10B500
:104480000446642133F0E8FA204610BD10B5044616
:104490004C2133F0E1FA204610BD10B5044610213E
:1044A00033F0DAFA204610BD10B50446102133F07F
:1044B000D3FA204610BD10B504464FF44F7133F0C7
:1044C000CBFA204610BD08B5FFF714FC08BD10B5A7
:1044D0000446006B50B10368DB68984730B1206B2D
:1044E00021460368BDE810409B68184710BD00F1E5
:1044F000FC028A4202D10368DB6A184770470B79D5
:1045000070B504460D4690F82C600BB916B170BD1D
:10451000002EFCD0B3FA83F320465B0984F82C30DC
:104520002368D3F88C309847236820465B69984706
:10453000002EECD02B79012BE9D123682046D3F84B
:104540008830BDE870401847036870B55E6B04465C
:10455000114B8DB21B682BB9104B6C21104A1148BE
:1045600034F0B8FA1049828D0988914203D80F4B74
:104570006D210B4AF3E713F812200D4B1B6853F81B
:10458000220003681B6B9847291A3346204609B25C
:10459000BDE87040184700BFD45E012062D1030817
:1045A000A4D10308DFD10308D85E012026D2030876
:1045B000DC5E01209830884208B505D120F0A6FACB
:1045C000BDE8084000F046BE08BD00224FF0FF31B4
:1045D0008260C0E900217047036870B504461B6B18
:1045E000154698472368204629465B6BBDE8704016
:1045F0001847036870B504469B6B154698472368B7
:1046000020462946DB6BBDE87040184738B50446A4
:104610001D46FFF7E1FFBDF9102029462046FFF7B0
:10462000E8FF38BD0B8870B50546A0F860301388E8
:10463000044625F8623F284624F05EF906462846DF
:1046400024F08EF9314602462046FFF7D2FF236858
:104650002046D3F88C30BDE8704018470022C0E9EE
:104660000122C0E90322C0E90522C0E907224FF474
:1046700080728284014A0260704700BFCCF2030856
:1046800038B504460D462622002135F0A7F920460C
:10469000FFF7E4FF064B2046294623602B88E3847E
:1046A000FF2384F828301DF044FD204638BD00BFAC
:1046B000A010040810B504462622002135F08EF91A
:1046C0002046FFF7CBFF0A4B4FF47F0220462360C2
:1046D000084BA3624FF6FF73A3850023C4E90C3295
:1046E0004FF0FF322387E363C4E9102310BD00BFFE
:1046F000B00E040834F30308F8B5194B0646018FD1
:104700001B888B422AD9174B1B682BB9164B6C217F
:10471000164A174834F0DEF913F81120154B1B68C0
:1047200053F82250144B186801F0E8FD2B68074637
:1047300028469B6B98472B68044639469B6C284655
:10474000984714FB00F42B683946A4B228465B6AEC
:10475000984723181BB2A6F84630F8BD0023FAE7A5
:10476000D85E0120D45E012062D10308A4D10308E1
:10477000DFD10308DC5E0120E05E01204FF47F43BF
:10478000F7B5838540F2011300250646838404466D
:10479000124B4FF6FF77856201A90563ADF80470EF
:1047A000C0E90155C0E90355C0E90555C0E9075501
:1047B00046F8343B3046FFF763FF2A462946304629
:1047C000A4F86070A4F86270FFF706FF2046314637
:1047D00019F000FD204603B0F0BD00BFD4F303087C
:1047E0002DE9F04F044691B0002522F0B9FA274692
:1047F000D74B26222946E56304F16C0B47F8403B72
:10480000384635F0EBF83846FFF728FFD14B4FF626
:10481000FF760EA92364FF235846A56684F8663008
:1048200004F1FC09ADF83860FFF72AFF04F19803A2
:1048300004F5A27804F5B87A18460793FFF79EFFAF
:1048400048461DF0ADFD0EA94046ADF838601CF09D
:10485000C7FB0EA95046ADF838601CF0C1FB04F54B
:10486000CE73261D18460293FFF724FF04F5F2735A
:1048700018460393FFF71EFF04F50B7318460493C5
:10488000FFF718FF04F51D7318460593FFF712FF95
:1048900004F52F7318460693FFF70CFFAE4B2A461C
:1048A0002946C4F8BC323846AC4BC4F80453C4E9BA
:1048B000C734AB4BC4E9C935AA4BC4E9CB34AA4BC6
:1048C000C4E9CD354FF4887300934FF4F073FFF7CC
:1048D0009DFE4FF07F4339463046A366782719F096
:1048E00079FC2A4629465846FFF776FE4FF0030327
:1048F00058460EA9ADF838301DF01BFC594630461D
:104900004FF00B0B19F066FC0EAA0DA90798ADF835
:1049100034B0ADF838B0FFF785FE2A46294604F1D9
:10492000CC00FFF759FE04F547734C22B421C4F8BC
:10493000C8303B4607980097FFF768FE0799304656
:1049400019F048FC39464846D222FFF745FE0127B8
:104950004FF002030EAA0DA94846ADF83830ADF865
:1049600034701DF0ADFA4846A4F83471FFF7C4FE68
:104970004FF0FF3704F54B73494630464FF00A09B4
:10498000C4F82431C4E94E7719F024FC40460EA93E
:10499000ADF838901DF0CDFB5023582240460093CF
:1049A0002821FFF733FE294640461CF0D4FA414641
:1049B00030460DF1200819F00DFC50460EA9ADF857
:1049C00038901DF0B6FB50236022504600934FF400
:1049D000B471FFF71BFE294650461CF0BCFA514645
:1049E0003046DFF8A0A119F0F5FB2A220C2102982D
:1049F000FFF7F2FD4FF07F4302994046C4F8CC31F7
:104A0000A4F8D0511CF096FD04F5EC7C98E8070062
:104A10008CE807000EA90298CDF838A0ADF83CB09C
:104A20001DF022F80299304619F0D4FB2A224FF4E7
:104A3000A6710398FFF7D0FD4FF07F4303994046DE
:104A4000C4F81432A4F818521CF074FD04F5087C64
:104A500098E807008CE807000EA90398CDF838A065
:104A6000ADF83C901DF000F80399304619F0B2FB08
:104A700074222F210498FFF7AFFD04994046A4F853
:104A80006052C4F85C721CF055FD04F51A7C98E87D
:104A900007008CE8070005220EA90498ADF83C2019
:104AA000CDF838A01CF0E0FF0499304684F851524C
:104AB00019F090FB742238210598FFF78DFD0599B8
:104AC0004046A4F8A852C4F8A4721CF033FD04F5C3
:104AD0002C7C98E807008CE8070004220EA90598B2
:104AE000ADF83C20CDF838A01CF0BEFF059930464B
:104AF00084F8995219F06EFB502374224FF4B4716C
:104B000006980093FFF782FDD4F8BC320699404620
:104B1000D3F88430A4F8F05204F54275C4F8EC726E
:104B2000984704F53E7398E8070083E807000F4BA9
:104B30001B682BB90E4B60210E4A0F4833F0CAFF99
:104B40000E4B1B88022B1FD80D4B6121094AF4E73D
:104B5000A4F40308400F040844F3030874F40308A2
:104B6000B54500088CF40308EF440008D45E01202A
:104B700062D1030864D20308DFD10308D85E0120A4
:104B800026D2030834F303080F4B0221186801F002
:104B9000B5FB0E4A03464946284623F0F3FD4FF085
:104BA00003030EA90698C4F80453ADF83C30CDF8C1
:104BB00038A01CF059FF3046069919F00BFB20462F
:104BC00011B0BDE8F08F00BFE05E01204BEA0308A2
:104BD000704710B50446042132F03EFF204610BD58
:104BE00008B5032913D8DFE801F002060A0E01F028
:104BF00095FB006808BD01F091FB4068FAE701F001
:104C00008DFB8068F6E701F089FBC068F2E70020C1
:104C1000F0E7000000487047E8F4030812207047EE
:104C200013B5002451B1036801AA01948DF8034023
:104C30009C680DF10303A04702B010BD0846FBE7D6
:104C4000C0897047008A7047C08870478088704765
:104C5000807A00F07F007047807AC009704700209A
:104C6000704700009FED010A704700BF0000000080
:104C70007047704700F598730868496803C3704728
:104C8000704770474160704770477047064BC0F8E7
:104C90004801C0F84C310023C0F8503100F5A27330
:104CA000C0F84031704700BF69500008012303720B
:104CB000704770477047704738B5054640680368CD
:104CC000DB699847044604B938BDA1882046AB8902
:104CD000C91A236809B21B6B9847A469F3E77047A8
:104CE00010B441680346C2689B68541001EB62002F
:104CF000D20748BF0A595DF8044B48BFD35818473C
:104D00000346406830B19A681AB9D86800F00100CB
:104D100070470120704710B504460C2132F09CFE0C
:104D2000204610BD10B50446102132F095FE2046F5
:104D300010BD10B50446142132F08EFE204610BD81
:104D400010B50446102132F087FE204610BD10B584
:104D500004464FF4AE7132F07FFE204610BD10B510
:104D60001FF0D4FE0368BDE81040DB6B184710B598
:104D70001FF0CCFE0368BDE810405B6B184710B510
:104D80001FF0C4FE0368BDE810405B6B18470000CD
:104D900013B50446807A0130637AC0B29842A0729B
:104DA00005D9012323720023A37202B010BDB4F908
:104DB0000C20002122F086F9C30707D500284FF602
:104DC000FF73C8BF012313FA80F000B20023144A16
:104DD000E0811288ADF8023083B2D21AADF800201B
:104DE000228A20829B1AADF804300E4B1B88ADF846
:104DF00006301FF08BFE02AA036812E906001B6C46
:104E00009847A37A012BD0D1074B1B78002BCCD02D
:104E10001FF07CFE02B0BDE810401FF07DBE00BF59
:104E2000705E0120725E01207A5E012037B5054672
:104E3000807A01306B7AC0B29842A87205D90123FA
:104E40002B720023AB7203B030BDB5F90C200021EA
:104E5000B5F90E4022F036F9C30707D500284FF602
:104E6000FF73C8BF012313FA80F000B2AB7A041BB2
:104E7000E881012BA4B206D1174B1B781BB11FF0A0
:104E800045FE1FF049FE0023144AADF80230128897
:104E9000EB891A445B42ADF80430114BADF80020A9
:104EA0001B88ADF806301FF031FE02AA036812E934
:104EB00006001B6C984768680368DB6998470546DD
:104EC000002DC0D0A98828462B6821441B6B09B24D
:104ED0009847AD69F4E700BF7A5E0120705E01205B
:104EE000725E012010B50446D0F8400158B1036845
:104EF000DB68984738B1D4F8400103689B6898474D
:104F00000023C4F8403110BD2DE9F14FD0E9556AB6
:104F10000746B06803681B6A9847B0F5077F05D25B
:104F2000484BA321484A494833F0D4FD70680368D0
:104F30001B6A98470F2803D8454BA421424AF2E741
:104F4000F06803681B6A98470F2803D8414BA521D6
:104F50003D4AE8E7DFF808911FF0D8FD04301FF064
:104F60003BFED9F8000010B10368DB689847D9F818
:104F7000000010B103681B689847DFF8E880D8F894
:104F8000000010B103685B699847D7F83C0110B185
:104F900003685B689847D8F8000010B103681B6885
:104FA0009847D7F83C0110B103689B689847F068B0
:104FB00000214FF0000B03685B6A9847264B0446BC
:104FC00080F80AB003604FF4A053C0F804B059460B
:104FD0000381224BA0F80EB01B885B428381B0682E
:104FE00003685B6A9847054601F0C8FC706859463B
:104FF00003685B6A98470646294601F09DFC331D0D
:10500000C7F83C612846C9F80040C8F80050CAF803
:1050100000302B68C6F808A0DB68EE639847336859
:1050200030461B6898472146284622F045F82368F9
:1050300020461B699847236820465B6901B0BDE89C
:10504000F04F1847AFD203083DD303081CD4030820
:1050500063D4030806D503080CF70308705E01202B
:10506000C45E0120C05E01202DE9F14FD0E9556AF0
:105070000746B06803681B6A9847B0F5077F05D2FA
:10508000444BA321444A454833F024FD706803682B
:105090001B6A98470F2803D8414BA4213E4AF2E7E8
:1050A000F06803681B6A98470B2803D83D4BA5217D
:1050B000394AE8E7DFF8F4901FF028FD04301FF0CC
:1050C0008BFDD9F8000010B10368DB689847D9F868
:1050D000000010B103681B689847DFF8D480D8F847
:1050E000000010B103685B699847D7F83C0110B124
:1050F00003685B689847D8F8000010B103681B6824
:105100009847D7F83C0110B103689B689847F0684E
:1051100000214FF0000B03685B6A9847224B04465E
:10512000C0F804B080F808B059460360B06803685E
:105130005B6A9847054601F021FC70685946036890
:105140005B6A98470646294601F0F6FB331DC7F80F
:105150003C612846C9F80040C8F80050CAF8003041
:105160002B68C6F808A0DB68EE63984733683046C2
:105170001B6898472146284621F09EFF2368204659
:105180001B699847236820465B6901B0BDE8F04F72
:10519000184700BFAFD20308A9D503081CD40308E1
:1051A00063D4030806D50308C4F60308C45E0120CF
:1051B000C05E0120044B1B6893F858200AB1D86CDC
:1051C00000B99868704700BF7C5E0120F8B51746AB
:1051D00004460E461FF0D2FD124B00251C602946E6
:1051E000114B2360114BC4E95135114B1868C4E9C8
:1051F00053550368C4E94F559B68C4E955769847F1
:10520000284601F03FF8FFF7D5FF2AF01EFBFFF715
:10521000D1FF2AF095FBFFF7CDFF2AF09DFB20463A
:10522000F8BD00BFD05E012070F6030858F60308F1
:105230007C5E0120064BC0F84801C0F84C310023C9
:10524000C0F8503100F5A273C0F84031704700BF7C
:1052500069500008064BC0F84801C0F84C310023E3
:10526000C0F8503100F5A273C0F84031704700BF5C
:10527000094F0008064BC0F84801C0F84C31002324
:10528000C0F8503100F5A273C0F84031704700BF3C
:10529000A5550008064BC0F84801C0F84C31002362
:1052A000C0F8503100F5A273C0F84031704700BF1C
:1052B00041540008064BC0F84801C0F84C310023A7
:1052C000C0F8503100F5A273C0F84031704700BFFC
:1052D000DD52000803685B6A184700002DE9F14FB2
:1052E000D0E955BA0746DBF8080003681B6A9847FF
:1052F000B0F5527F05D2494BA321494A494833F0C2
:10530000E9FBDBF8040003681B6A98470F2803D801
:10531000454BA421424AF1E7DBF80C0003681B6A05
:105320009847132803D8414BA5213D4AE6E7DFF80B
:1053300008911FF0EBFB04301FF04EFCD9F8000081
:1053400010B10368DB689847D9F8000010B1036812
:105350001B689847DFF8E480D8F8000010B10368B4
:105360005B699847D7F83C0110B103685B689847C0
:10537000D8F8000010B103681B689847D7F83C01C3
:1053800010B103689B6898470021DBF80C00FFF719
:10539000A1FF274B0026044603604FF4A0538672FA
:1053A00031460381234B46601B88C6810682838178
:1053B000DBF8080003685B6A9847054601F00EFABF
:1053C000DBF80400314603685B6A984706462946C5
:1053D00001F0E2F9331DC7F83C612846C9F80040E6
:1053E000C8F80050CAF800302B68C6F808A0DB687F
:1053F000EE639847336830461B6898472146284635
:1054000021F05AFE236820461B69984723682046EE
:105410005B6901B0BDE8F04F184700BFAFD2030889
:1054200075D603081CD4030863D4030806D5030803
:10543000E8F60308705E0120C45E0120C05E012012
:105440002DE9F14FD0E955BA0746DBF808000368AB
:105450001B6A984740F23343984205D8484BA32132
:10546000484A494833F036FBDBF8040003681B6AFE
:1054700098470F2803D8454BA421424AF1E7DBF8AF
:105480000C0003681B6A9847132803D8404BA521DA
:105490003C4AE6E7DFF804911FF038FB04301FF0C8
:1054A0009BFBD9F8000010B10368DB689847D9F876
:1054B000000010B103681B689847DFF8E480D8F853
:1054C000000010B103685B699847D7F83C0110B140
:1054D00003685B689847D8F8000010B103681B6840
:1054E0009847D7F83C0110B103689B6898470021A2
:1054F000DBF80C00FFF7EEFE264B002604460360A7
:105500004FF4A053867231460381234B46601B88BB
:10551000C68106828381DBF8080003685B6A9847CE
:10552000054601F08DFADBF80400314603685B6A3A
:1055300098470646294601F061FA331DC7F83C61D9
:105540002846C9F80040C8F80050CAF800302B6857
:10555000C6F808A0DB68EE639847336830461B68DE
:1055600098472146284621F0A7FD236820461B695D
:105570009847236820465B6901B0BDE8F04F1847A3
:10558000AFD2030857D703081CD4030863D4030819
:1055900006D50308E8F60308705E0120C45E01200A
:1055A000C05E01202DE9F14FD0E955BA0746DBF87E
:1055B000080003681B6A9847B0F51F7F05D2494B66
:1055C000A321494A494833F085FADBF8040003680F
:1055D0001B6A98470F2803D8454BA421424AF1E79C
:1055E000DBF80C0003681B6A9847132803D8414B6B
:1055F000A5213D4AE6E7DFF808911FF087FA04305D
:105600001FF0EAFAD9F8000010B10368DB68984788
:10561000D9F8000010B103681B689847DFF8E480F0
:10562000D8F8000010B103685B699847D7F83C01CF
:1056300010B103685B689847D8F8000010B10368A0
:105640001B689847D7F83C0110B103689B689847DE
:105650000021DBF80C00FFF73DFE274B0026044637
:1056600003604FF4A053867231460381234B46609A
:105670001B88C68106828381DBF8080003685B6AA9
:105680009847054601F014FBDBF804003146036837
:105690005B6A98470646294601F0C0FA331DC7F8F1
:1056A0003C612846C9F80040C8F80050CAF80030EC
:1056B0002B68C6F808A0DB68EE639847336830466D
:1056C0001B6898472146284621F0F6FC23682046AF
:1056D0001B699847236820465B6901B0BDE8F04F1D
:1056E000184700BFAFD2030837D803081CD40308FB
:1056F00063D4030806D50308E8F60308705E0120AA
:10570000C45E0120C05E0120406A7047806A704715
:1057100070470B888A889BB2D20A10B54C88C16941
:1057200043EA044351F82200184410BD10B5044662
:10573000BAB1107B68B1537BD27A1B0203F4E063E9
:105740001A43236A03EB82031A888A4202D193F92F
:10575000020010BD05D80138043380B20028F3D10F
:10576000F7E70020F5E710B504462C2132F074F974
:10577000204610BD30B58BB00446BDF8605008958A
:10578000BDF85C5007959DF8505006959DF84C501B
:1057900005959DF8485004959DF8445003959DF853
:1057A000405002959DF83C500195BDF83850009549
:1057B00021F02EF8064B20462360159BE361169BD3
:1057C0002362199B63621A9BA3620BB030BD00BFBA
:1057D00030F7030870477047704730B44468034699
:1057E000C2689B68551004EB6200D20748BF62593B
:1057F00030BC48BFD35818470346406830B19A6858
:105800001AB9D86800F0010070470120704710B540
:105810000446102132F020F9204610BD10B5044690
:105820004FF4077132F018F9204610BD38B500F575
:10583000B07304460D46994203D11FF067F9FFF794
:1058400019FD04F1FC039D4203D11FF05FF9FFF73E
:1058500021FD9834A54205D11FF058F9BDE8384024
:10586000FFF728BD38BD00002DE9F04F04468BB08E
:105870004FF0000B21F074FA2546814A5946C4F8CE
:105880003CB045F8402B2622284604F1980A34F013
:10589000A5F82846FEF7E2FE7A4904F16C034FF6BC
:1058A000FF762164FF21184604F1FC0984F8661094
:1058B00008A9C4F868B004F5B078019304F5E2775C
:1058C000ADF82060FEF7DCFE5046FEF757FF484675
:1058D000FEF754FF4046FEF751FF59462622384650
:1058E00034F07CF83846FEF7B9FE674A674B5946F4
:1058F000C4F8C4214FF47F02C4F8EC312846C4F840
:10590000F8214FF0FF32A4F8F061261DC4F8F4B17D
:10591000A4F8FCB1C4F800B2C4E9812B5C4AC4E924
:1059200083245C4AC4E9852B5A46FEF755FE4FF4A2
:10593000887228464FF4F071FEF75BFE4FF07F430C
:1059400029463046A36604F5037518F043FC5A4611
:1059500059460198FEF740FE032208A90198ADF8C8
:1059600020201CF0E6FB0199304618F033FC08AA11
:1059700007A95046ADF81CB0ADF820B0FEF752FEB6
:105980005A46594604F1CC00FEF726FE5046C4F8AC
:10599000C850472240F23111FEF71EFE82225046C7
:1059A0001146FEF726FE5146304618F013FC102231
:1059B00007A94846ADF81C20ADF8202008AAFEF73C
:1059C00031FE5A46594604F59870FEF705FE4846E2
:1059D000C4F82C514722A021FEF7FEFD8222484642
:1059E0001146FEF706FE4946304618F0F3FB112239
:1059F00007A94046ADF81C20ADF8202008AAFEF704
:105A000011FE6FF0310204F5CA701146FEF7E4FD95
:105A10004046C4F8905147220F2102ADFEF7DCFD4D
:105A2000822240461146FEF7E4FD4146304618F01A
:105A3000D1FBE32238468C21FEF7CEFD4FF07F43A9
:105A400039462846C4F8F431A4F8F8B11BF072FDC9
:105A500004F5007395E8070083E807000B4B08A9DD
:105A6000384608930C23ADF824301BF0FDFF304678
:105A7000394618F0AFFB20460BB0BDE8F08F00BFF1
:105A8000B0F70308400F0408B00E040834F303080D
:105A900098F703082D58000870477047704730B4D6
:105AA00044680346C2689B68551004EB6200D20745
:105AB00048BF625930BC48BFD358184703464068B6
:105AC00030B19A681AB9D86800F001007047012017
:105AD000704710B50446102131F0BEFF204610BDBE
